:020000040800F2
:10000000F807002039020008092900080B29000818
:100010000D2900080F290008112900080000000020
:10002000000000000000000000000000132900088C
:100030001529000800000000172900081B290008E6
:10004000530200085302000853020008530200083C
:10005000530200085302000853020008530200082C
:10006000530200085302000853020008530200081C
:10007000530200085302000853020008530200080C
:1000800053020008530200085302000853020008FC
:1000900053020008530200085302000853020008EC
:1000A00053020008530200085302000853020008DC
:1000B000F12A000853020008530200085302000806
:1000C00053020008530200085302000853020008BC
:1000D00053020008FB2400080D2500082525000810
:1000E000530200085302000853020008530200089C
:1000F000530200085302000853020008530200088C
:10010000530200085302000853020008530200087B
:100110003D25000855250008530200085302000839
:10012000530200085302000853020008530200085B
:10013000530200085302000853020008530200084B
:10014000530200085302000853020008530200083B
:1001500053020008530200085302000869250008F2
:10016000530200085302000853020008530200081B
:10017000530200085302000853020008530200080B
:10018000530200085302000800F002F800F045F89E
:100190000AA090E8000C82448344AAF10107DA45E2
:1001A00001D100F03AF8AFF2090EBAE80F0013F0EF
:1001B000010F18BFFB1A43F001031847302F00004E
:1001C000502F0000103A24BF78C878C1FAD85207DF
:1001D00024BF30C830C144BF04680C6070470000C1
:1001E0000023002400250026103A28BF78C1FBD840
:1001F000520728BF30C148BF0B607047642902F026
:100200003185002070471FB502F06BFF9DE80300A9
:1002100002F00AFE1FBD10B510BD02F0D9FE114656
:10022000FFF7F1FF02F008FB02F0F7FE03B4FFF75F
:10023000F2FF03BC02F028FF094880470948004745
:10024000FEE7FEE7FEE7FEE7FEE7FEE7FEE7FEE786
:10025000FEE7FEE704480549054A064B70470000E3
:10026000C729000889010008F8010020F8070020CC
:10027000F8030020F8030020F848016841F001016C
:100280000160F64A0021083211600268F44B1A40FE
:100290000260031DF34A1A60F04BF34A84331A607C
:1002A000F04A103A1B1D1A60026822F48022026094
:1002B000EA480C300160181D01607047E7490022D0
:1002C000891C0A70087070470246002051090129F4
:1002D0000CD002290CD0E1497431096802F01F02E8
:1002E000012393400B4200D001207047DB49F4E723
:1002F000DA497031F1E718B500204FF4A0440090BE
:100300003120FFF7E1FF0099491C0091A14201D083
:100310000028F5D03120FFF7D7FF002800D00120BA
:1003200018BDCE4A116821F0F80141EAC000106002
:100330007047CE4908607047C849002270310A7082
:100340000A70012802D0042801D1052008707047E6
:10035000C7490860704741EA82115A0810B5C54B79
:10036000029C03EB02421143014341EA0460BB4992
:10037000091D086010BDBD4908667047800140EA4C
:100380000170B649843108607047B8498866704783
:10039000800140EA0160B14940EA0270883108609A
:1003A0007047B24908677047B049C8647047AB4BA3
:1003B00008331A68084322F0EC6210431860704753
:1003C000A64B08331A68084322F07842104318609D
:1003D0007047A24A0832116821F0030101431160FD
:1003E00070479E480830006800F00C0070479B4A38
:1003F0000832116821F0F001014311607047974AFB
:100400000832116821F4E051014311607047934AAA
:100410000832116821F4604141EAC0001060704761
:1004200070B58E4B08331968934C11F00C0104D051
:100430006610042903D0082903D004601BE006607D
:1004400019E0864A121D1168C1F38055116801F048
:100450003F0115B1B6FBF1F101E0B4FBF1F1146815
:100460001268C4F388146143C2F30142521C520063
:10047000B1FBF2F1016019680F2202EA11117F4A03
:10048000545C0168E14041601C68072505EA94243A
:10049000145D21FA04F484601B6805EA5333D25CCE
:1004A000D140C16070BDC0F30121032908D16B4B5D
:1004B00008331968724A21F4F81102400A431A609D
:1004C000664970310A68C0F30B0002430A60704746
:1004D000674944390860704765494039086070478A
:1004E0006249C1F85C0170475C4A8C32116821F4A2
:1004F0004011014311607047584A8C32116821F451
:100500004001014311607047544A8C321168401E0B
:1005100021F01F01014311607047504A8C3211686D
:100520006FF0FF0321F4F85103EB00200843106043
:1005300070474A4A8C32116821F4403101431160FE
:1005400070475049C1F8E0017047444A30320029F1
:10055000116801D0014300E08143116070473F4AB8
:1005600034320029116801D0014300E08143116059
:1005700070473A4A38320029116801D0014300E03F
:10058000814311607047354A40320029116801D01B
:10059000014300E0814311607047304A4432002932
:1005A000116801D0014300E08143116070472B4A7C
:1005B00010320029116801D0014300E0814311602D
:1005C0007047264A14320029116801D0014300E027
:1005D000814311607047214A18320029116801D007
:1005E000014300E08143116070471C4A203200291A
:1005F000116801D0014300E0814311607047174A40
:1006000024320029116801D0014300E081431160C8
:100610007047124A50320029116801D0014300E0AE
:100620008143116070470D4A54320029116801D08E
:10063000014300E0814311607047084A58320029A5
:10064000116801D0014300E0814311607047034A03
:1006500060320029116817D0014316E000380240CB
:10066000FFFFF6EA1030002400300020000047426F
:10067000800E47420000FFFF0024F400000000202D
:10068000FFFCFF0F00104742814311607047194A79
:100690000029116801D0014300E0814311607047D7
:1006A00014490C310128086803D020F008000860C4
:1006B000704740F00800FAE70E4A573A00291178CF
:1006C00001D0014300E081431170704709481030A8
:1006D000016841F08071016070470146054A0020C1
:1006E000583A12680A4200D0012070470149563931
:1006F0000870704764380240774910B5884206D1C7
:1007000001210846FFF753FF002101205BE07349F8
:10071000884206D101210220FFF749FF0021022073
:1007200051E06F49884206D101210420FFF73FFFC5
:100730000021042047E06B49884206D101210820AE
:10074000FFF735FF002108203DE06749884206D1C8
:1007500001211020FFF72BFF0021102033E0634917
:10076000884206D101212020FFF721FF002120200F
:1007700029E05F49884206D101214020FFF717FF99
:10078000002140201FE05B49884206D101218020E2
:10079000FFF70DFF0021802015E05749884202D164
:1007A000012184150AE05549884202D101214415EE
:1007B00004E0534988420AD1012104152046FFF77D
:1007C000F6FE00212046BDE81040FFF7F0BE10BD48
:1007D000F0B5002201274FF0030C0B6807FA02F571
:1007E0002B40AB422CD1066853000CFA03F4A6430D
:1007F00006600E79D0F800E09E4046EA0E060660DC
:100800000E79012E01D0022E12D18668A643866091
:100810004E79D0F808E09E4046EA0E0686604668AB
:10082000AE43466045688E799640B6B23543456022
:10083000C568A543C560CC799C40C3681C43C460AF
:10084000521C102AC9D3F0BD4FF6FF710160002180
:10085000017141718171C171704708B541F48032F5
:100860000092C261C1610099C161C169C069009013
:1008700008BD0246002012690A4200D001207047DC
:10088000006980B270470246002052690A4200D0D7
:1008900001207047406980B27047018370474183EF
:1008A00070470AB1018370474183704741617047C7
:1008B00042694A40426170474B07DB0E9A40C908C3
:1008C00010B500EB8100016A0F249C40A143016236
:1008D000016A1143016210BD0000024000040240A1
:1008E00000080240000C02400010024000140240C8
:1008F00000180240001C0240002002400024024078
:10090000002802402849084328490860704730B54C
:100910000F23C27801780125FAB1244A126801F147
:10092000E02102F4E062C2F5E062C2F30722C2F104
:100930000404D3404278A24084781C40144322012E
:1009400081F80024007800F01F018D4040098000EC
:1009500000F1E020C0F8005130BD01F01F008540DB
:100960004809800000F1E020C0F8805130BD104AF5
:10097000114001430D48001F016070470B4A121DD2
:100980000029116801D0014300E0814311607047E4
:100990004FF0E0210428086903D020F0040008612A
:1009A000704740F00400FAE70000FA050CED00E0A3
:1009B00080FFFF1F10B501210C022046FFF71FFE2C
:1009C0002046BDE810400021FFF719BE30B542684F
:1009D000C84B0C791A400B6842EA04221343436067
:1009E0008268C54B4D791A40D1E9034323438C6893
:1009F00044EA4504234313438360C26A097D22F419
:100A00007002491EC9B242EA0151C16230BD0021E3
:100A10000160017141718160C16001610121017555
:100A20007047B64B10B5D3F80423B5490A40D0E956
:100A300000142143D0E90240044321431143C3F889
:100A4000041310BD0021016041608160C1607047E6
:100A50000029816802D041F0010101E021F001018B
:100A6000816070474268A74B1A400A434260704752
:100A7000416282627047426822F01F020A4342606C
:100A800070479E490028D1F8040302D040F40000CA
:100A900001E020F40000C1F80403704797490028E2
:100AA000D1F8040302D040F4800001E020F480007B
:100AB000C1F80403704770B5072609290AD9C5682B
:100AC000A1F10A0404EB4404A640B543A3401D432E
:100AD000C56007E0056901EB4104A640B543A340AA
:100AE0001D4305611F23072A09D2446B521E02EBE6
:100AF000820293409C4391400C43446370BD0D2A95
:100B000009D2046BD21F02EB820293409C439140B6
:100B10000C43046370BDC46A0D3A02EB8202934039
:100B20009C4391400C43C46270BD816841F0804198
:100B300081607047014600208968490000D5012086
:100B400070470029816802D041F4806101E021F4FE
:100B50008061816070470029816802D041F0020104
:100B600001E021F00201816070474268491E22F4D1
:100B7000604242EA4131416070470029416802D039
:100B800041F4006101E021F4006141607047C06CF4
:100B900080B270475948D0F808037047002981682F
:100BA00002D041F4807101E021F4807181607047CE
:100BB0000029816802D041F4007101E021F4007144
:100BC000816070474D490028D1F8040302D040F4F9
:100BD000005001E020F40050C1F80403704770B5E4
:100BE000072609290AD9C568A1F10A0404EB4404BF
:100BF000A640B543A3401D43C56007E0056901EB6E
:100C00004104A640B543A3401D430561836BC3F374
:100C10000154121B921C02EB82021F249440A34336
:100C200091400B43836370BD826B491E22F44012D6
:100C300042EA01518163704708B5084400900260A0
:100C400008BD826822F470220A438260704782687D
:100C500022F440120A4382607047816841F48001A7
:100C600081607047014600208968490200D5012053
:100C700070470029416802D041F4806101E021F40D
:100C80008061416070470029416802D041F4805181
:100C900001E021F480514160704708B508442830D4
:100CA0000090006880B208BD01238B4041680AB102
:100CB000194300E0994341607047024600201268E2
:100CC0000A4200D001207047C9430160704730B527
:100CD0000246002053680C0A01258D4011682B4004
:100CE000214202D0002B00D0012030BD6FEA11213B
:100CF00001607047FFFEFFFCFDF7FFC000200140D0
:100D0000E030FCFFFFFD3FFFCD4910B5884206D122
:100D100001211020FFF773FC0021102020E0C949B9
:100D2000884202D101214C0429E0C749884202D1FE
:100D300001218C0423E0C549884202D10121CC0461
:100D40001DE0C349884202D101210C0517E0C149C9
:100D5000884209D101212020FFF751FC00212020E9
:100D6000BDE81040FFF74BBCBB49884202D10121CE
:100D70008C0704E0B94988420AD101214405204684
:100D8000FFF733FC2046BDE810400021FFF72DBCE3
:100D900010BD7FB50446008A0D46C98820F4405036
:100DA00001432182A08941F20C618843A9882A89E4
:100DB00011436A8902431143A181A08A20F4407142
:100DC000A8890843A0826846FFF72AFB9C48844212
:100DD00002D0A048844201D1039800E00298A18982
:100DE000090400EBC00101EB0010296801D549009E
:100DF00000E08900B0FBF1F06422B0FBF2F10901E0
:100E00000B096FF018056B4300EB8300A3891D04E9
:100E10004FF0320306D503EBC000B0FBF2F000F058
:100E2000070005E003EB0010B0FBF2F000F00F004C
:100E3000084320817FBD4FF416510160002181805D
:100E4000C18001810C2242818181704710B5028AE4
:100E50004C8822F470630A8822438C88C9880C432A
:100E600022431A43028210BD00210180418081800B
:100E7000C18070470029818902D041F4005101E00E
:100E800021F4005181817047028B02F47F4202837A
:100E9000028B0A43028370470029818902D041F402
:100EA000004101E0C1F30E01818170470029818A70
:100EB00002D041F4006101E021F4006181827047B9
:100EC000C1F30801818070478088C0F30800704733
:100ED000028A22F00F020282028A0A4302827047CB
:100EE0000029818902D041F0020101E021F00201D4
:100EF00081817047828922F40062828182890A435B
:100F000082817047028A22F020020282028A0A430A
:100F1000028270470029018A02D041F4804101E039
:100F200021F4804101827047818941F00101818172
:100F300070470029818A02D041F0080101E021F0C8
:100F4000080181827047028BD2B20283028B42EA8F
:100F50000121018370470029818A02D041F02001DC
:100F600001E021F02001818270470029818A02D0AE
:100F700041F0100101E021F0100181827047828A66
:100F800022F004028282828A0A4382827047002908
:100F9000818A02D041F0020101E021F00201818248
:100FA0007047002A828A01D00A4300E08A43828285
:100FB000704710B5C1F3421301F01F040121A14095
:100FC000012B07D0022B07D01430002A026805D06D
:100FD0000A4304E00C30F8E71030F6E78A43026079
:100FE00010BD0246002012880A4200D0012070473E
:100FF000C9430180704770B501F01F050126002428
:10100000C1F3421306FA05F2012B0FD0022B0FD0C9
:10101000838A4FEA11210088134206FA01F600EA9A
:10102000060001D000B10124204670BD8389F0E79D
:10103000038AEEE70A0A01219140C9430180704703
:10104000001001400044004000480040004C0040B7
:10105000005000400014014000780040007C004037
:10106000FE4910B5884206D101210846FFF7C7FAAC
:10107000002101205BE0B0F1804F09D0F84988429F
:101080000DD101210220FFF7B0FA0021022070E00B
:1010900001210846FFF7A9FA0021012069E0F14982
:1010A000884206D101210420FFF79FFA0021042085
:1010B0005FE0ED49884206D101210820FFF795FA4B
:1010C0000021082055E0E949884206D1012110207D
:1010D000FFF78BFA002110204BE0E549884206D14A
:1010E00001212020FFF781FA0021202041E0E14981
:1010F000884206D101210220FFF781FA0021022057
:1011000015E0DD49884202D101210C040AE0DB49E7
:10111000884202D101214C0404E0D94988420AD115
:1011200001218C042046FFF76AFA00212046BDE821
:101130001040FFF764BAD349884206D1012140200C
:10114000FFF753FA0021402013E0CF49884206D12F
:1011500001218020FFF749FA0021802009E0CB49D6
:1011600088420AD1841501212046FFF73EFA00216A
:101170002046BDE81040FFF738BA10BD30B50288F0
:10118000B64CBC4DA0420DD0A8420BD0B0F1804F60
:1011900008D0B34B984205D0B24B984202D0B24B24
:1011A000984203D122F070034A881A43AF4B984209
:1011B00006D0AF4B984203D022F440730A891A43F9
:1011C00002804A68C2620A880285A04201D0A84211
:1011D00001D1897A01860121818230BD4FF0FF3132
:1011E0004160002101800181418081727047018549
:1011F00082827047028822F070020A4302807047A0
:1012000041627047C1627047406A7047008D704705
:101210000029018802D041F0020101E021F0020121
:10122000018070470029018802D041F0040101E0EB
:1012300021F00401018070470029018802D041F0AB
:10124000800101E021F0800101807047028822F0D6
:101250000802028002880A4302807047028822F452
:101260004072028002880A43028070470029018888
:1012700002D041F0010101E021F00101018070473D
:1012800030B5028C22F001020284028C8388048B28
:1012900022F0020224F073050C882C438D8915433B
:1012A0004A882A436D4DA84202D0724DA8420DD102
:1012B00022F00805CA8923F440732A4322F004056A
:1012C0008A882A430D8A1D434B8A2B4383800483DB
:1012D00089684163028430BD70B5028C22F010022F
:1012E0000284028C8388048B0D8824F4E6464FF632
:1012F000FF7404EA052535438E8922F0200204EAB2
:10130000061616434A8804EA02123243534EB0428C
:1013100002D0584EB04215D122F08006CA8923F47B
:10132000406304EA0212324322F040068A8804EA4B
:10133000021232430E8A04EA86061E434B8A04EAEE
:10134000830333438380058389688163028470BD8E
:1013500070B5028C22F480720284028C8388848BA4
:101360000D8824F0730425438E894FF6FF7422F410
:10137000007204EA062616434A8804EA022232432F
:10138000364EB04202D03B4EB04215D122F4006638
:10139000CA8923F4405304EA0222324322F48066CD
:1013A0008A8804EA022232430E8A04EA06161E43A1
:1013B0004B8A04EA03133343838085838968C163BE
:1013C000028470BD70B5028C22F480520284058CB8
:1013D0008288838B0C8823F4E6464FF6FF7303EA7A
:1013E0000424344325F400568D8903EA053535433A
:1013F0004E8803EA06362E43184DA84202D01D4DF2
:10140000A84205D122F480450A8A03EA82122A43BF
:101410008280848389680164068470BD0021018014
:101420004180818081608181C181018241827047D8
:1014300030B50124058C00F118038C40A5430584C8
:1014400031B308292CD0091FC1F34E00184401689C
:1014500048F6FF731940016001681AE0000001407E
:101460000004004000080040000C00400010004054
:1014700000140040000401400040014000440140CD
:101480000048014000180040001C004000200040BF
:1014900006E04FF6FF7303EA02221143016030BDFC
:1014A00003EB510001684FF68F731940016001682A
:1014B000F3E74163704781637047C163704701641C
:1014C0007047028B22F070020A4302837047028B3E
:1014D0004FF6FF7322F4E04203EA01211143018336
:1014E0007047828B22F070020A4382837047828B9E
:1014F0004FF6FF7322F4E04203EA01211143818396
:101500007047028B22F008020A4302837047028B65
:101510004FF6FF7322F4006203EA012111430183B5
:101520007047828B22F008020A4382837047828BC5
:101530004FF6FF7322F4006203EA01211143818315
:101540007047028B22F004020A4302837047028B29
:101550004FF6FF7322F4806203EA012111430183F5
:101560007047828B22F004020A4382837047828B89
:101570004FF6FF7322F4806203EA01211143818355
:101580007047028B22F080020A4302837047028B6D
:101590004FF6FF73C2F30E0203EA012111430183E8
:1015A0007047828B22F080020A4382837047828BCD
:1015B0004FF6FF73C2F30E0203EA01211143818348
:1015C0007047028C22F002020A4302847047028CA8
:1015D00022F008020A4302847047028C4FF6FF7320
:1015E00022F0200203EA0111114301847047028CAA
:1015F0004FF6FF7322F0800203EA011111430184C8
:101600007047028C4FF6FF7322F4007203EA012147
:10161000114301847047028C4FF6FF7322F400627D
:1016200003EA0121114301847047028C4FF6FF73D6
:1016300022F4005203EA013111430184704710B5CE
:101640000123048C8B409C430484038C8A40134305
:10165000038410BD10B50423048C8B409C43048488
:10166000038C8A401343038410BD828B22F44062B2
:101670008283828B4FF6FF7303EA01210A43828340
:101680007047828B22F00C028283828B0A43828312
:101690007047028B22F440620283028B4FF6FF7385
:1016A00003EA01210A4302837047F0B5048C24F059
:1016B00010040484078B068C4FF6FF7404EA0115AE
:1016C00027F4734704EA0331394304EA02220A4348
:1016D00026F0A001294341F0100102830184F0BDEE
:1016E000028B22F00C020283028B0A4302837047B2
:1016F0002DE9F0410C460E884988A28823890546C9
:101700000EB3042E26D0082E2E8C4FF6FF7028D054
:1017100026F480562E84AF8B2E8C00EA022200EA3B
:10172000013127F473473A4300EA0330104326F4AB
:1017300020420A4342F48051A8832984E188284644
:10174000BDE8F04191E700F062F9E1882846BDE884
:10175000F041C5E7FFF7A9FFE1882846BDE8F04161
:1017600097E726F480762E84AF8B2E8C00EA012139
:1017700000EA0310104327F0F307384326F42062F1
:101780000A4342F48071A8832984E1882846BDE891
:10179000F04176E700210180418001228280C180F2
:1017A000018170472DE9F0410C4600264988074623
:1017B000012501B90226A288012A00D1022520882C
:1017C00023890028384610D0FFF76FFFE18838469C
:1017D000FFF75FFF23892A463146384600F017F9A4
:1017E000E1883846BDE8F0417AE700F010F9E18879
:1017F0003846FFF775FF23892A4631463846FFF7FA
:1018000054FFE1883846BDE8F04142E7406B70473D
:10181000806B7047C06B7047006C704710B50A88CA
:101820004B88CC881A438B8823431A430B891A436D
:101830004B8989891A430A43A0F8442010BD00212E
:10184000018041808180C180018141818181704717
:10185000002930F8441F02D041F4004101E0C1F3F7
:101860000E01018070470029818802D041F00401F7
:1018700001E021F00401818070470029818802D0B5
:1018800041F0010101E021F0010181807047002A4F
:10189000828901D00A4300E08A43828170478182B5
:1018A000704702460020128A0A4200D00120704789
:1018B000C9430182704702460020138A92890B4275
:1018C00002EA010202D0002A00D001207047C94379
:1018D000018270471143A0F848107047002A82899E
:1018E00001D00A4300E08A43828170470029818841
:1018F00002D041F0080101E021F008018180704729
:10190000018921F0070101817047028922F07002EC
:101910000A430281704700B50346FFF7F6FF1889B6
:1019200040F00700188100BD70B516460D466029CD
:1019300004464FF0010231460AD000F068F829460B
:101940002046FFF7E2FF208940F00700208170BDAC
:10195000FFF7ABFEF3E730B504894FF6FF7505EAF4
:1019600003231343E4B20B432343038130BD10B57B
:101970000446FFF7F0FF208940F07700208110BD7A
:1019800010B50446FFF7E7FF208940F4804020812E
:1019900010BD828822F07002828082880A43828091
:1019A0007047028922F00702028102890A430281FC
:1019B0007047028922F08002028102890A43028173
:1019C000704770B50589048B068C25F007050D431B
:1019D0004FF6FC410C4040F201110C434FF6FF71F1
:1019E00001EA031126F022061143314305810483E5
:1019F000018470BD0029818802D041F0800101E09E
:101A000021F0800181807047A0F85010704770B5B8
:101A1000048C24F001040484058B048C4FF6FF76BB
:101A200006EA0313134325F0F3052B4324F00A02BF
:101A30000A4342F001010383018470BD70B55A4826
:101A40004168491C4160816811B18168491E81600B
:101A5000AFF300800024554E18E006EB840568685B
:101A600090B1017B81B1826872B1521E8260696857
:101A70000AD14869096988476868016881606868AF
:101A8000416809B900210173641CE4B23078A042B6
:101A9000E3D870BD464801684FF47A70B1FBF0F0AE
:101AA000401EB0F1807F12D24FF0E0225061414BD6
:101AB000F02083F8140D00209061072010613E484B
:101AC000B1FBF0F13848C160012101707047FEE7B9
:101AD00035480078002805D04FF0E020016941F03A
:101AE0000201016170474FF0E020016921F002011D
:101AF000016170472DE9F0472C4C0546DDF8209038
:101B000020781E4617468846052802D30020BDE8E7
:101B1000F087182001F014F80028F8D00560C0E91B
:101B200001850773C0E90469217804EB81014860ED
:101B30002178491C2170EAE71C4B30B400211A7847
:101B400006E003EB81046468844203D0491CC9B2F7
:101B50008A42F6D88A4218D003EB81004068EFF33E
:101B6000108472B605E003EB8102491C9568C9B286
:101B700055601A78521E8A42F5DC1978491E197090
:101B800004B962B630BC01F00AB830BC704700211D
:101B900001737047012101737047016881607047CC
:101BA00041607047016070471000002098000020DD
:101BB000800000200FE000E0C0C62D0010B58AB004
:101BC0000446002001218DF81410C34A8DF8050049
:101BD000C2490490039002908DF80400944203D10E
:101BE0000A6842F480720CE0BD4A944203D10A684C
:101BF00042F4007205E0BB4A944204D10A6842F400
:101C000080620A600090089006904FF48030079040
:101C10004FF44070099006A8FEF703FF694620467E
:101C2000FEF7D4FEA06840F00100A0600AB010BD2D
:101C30001CB501230222CDE900230023032200F07A
:101C4000FDFC1CBDA449884202D0A549884202D1AE
:101C50002021A54804E0A349884202D12021A348BD
:101C6000E6E7704710B504469B48844202D09C4882
:101C7000844203D110219C48FFF7DAFF994884423F
:101C800004D1BDE8104010219848D1E710BD0821CB
:101C90009548CDE704219448CAE702219248C7E756
:101CA00001219148C4E710B504468B48844202D014
:101CB0008B48844203D102218D48FFF7B9FF894840
:101CC000844204D1BDE8104008218848B0E710BD27
:101CD00010B504468048844202D08148844203D132
:101CE00001218348FFF7A4FF7E48844204D10115F7
:101CF000BDE810407D489BE710BD10B5044676480E
:101D0000844202D07648844203D180217948FFF78B
:101D10008FFF7448844204D14115BDE810407348D8
:101D200086E710BD10B504466B48844202D06C486B
:101D3000844203D140216F48FFF77AFF694884420B
:101D400004D18115BDE81040684871E710BD10B599
:101D500004466148844202D06148844203D1202174
:101D60006448FFF765FF5F48844204D1BDE8104036
:101D700080215E485CE710BD10B504465648844299
:101D800002D05748844203D110215A48FFF750FF30
:101D90005448844204D1BDE810404021534847E7ED
:101DA00010BD0821534843E70421524840E702216F
:101DB00050483DE701214F483AE710B504464D48E9
:101DC000F9B101291FD002291FD003291FD00429EE
:101DD00021D0052923D0062925D0072927D0082975
:101DE00029D009292BD040480A290AD00B290AD02A
:101DF0000C290AD00D290AD00E2924D00F2926D06B
:101E000028E0012104E0022102E0042100E0082191
:101E1000FFF70EFF1EE02046FFF7AEFF1AE0204658
:101E2000FFF795FF16E02046FFF77CFF12E0204603
:101E3000FFF763FF0EE02046FFF74AFF0AE0204667
:101E4000FFF731FF06E02046FFF70CFF02E02046D7
:101E5000FFF7F8FE2046BDE81040AFE670B501235D
:101E6000054640F6FF741A46FEF725FEA86840F0C6
:101E70008040A86002E02046641E04D328688007E2
:101E8000F9D5E86C80B270BD1348D0F8041341F462
:101E90008001C0F8041370470F48D0F8041321F4F0
:101EA0008001C0F80413704710B5044605230122D1
:101EB0001221FEF700FEA06840F08040A06020687C
:101EC0008007FCD5E06C41F6C811484340F6FF712D
:101ED000B0FBF1F080B210BD002001404438024058
:101EE000002101400022014000080240001402408D
:101EF0000004024000000240FE4A0146904200D128
:101F00000020FD4A914200D10120FC4A914200D1BB
:101F10000220FB4A914200D10420FA4A914200D1AA
:101F20000520F94A914200D10620704770471CB540
:101F30000822032140B101280DD0032803D1082134
:101F4000F148FFF7F3FF1CBDCDE900120123002289
:101F5000C021EE4806E0CDE90012012300224FF433
:101F60008441EB4800F07BFB1CBD7CB530B10328FD
:101F700003D10821E348FFF7D9FF7CBD08250324DE
:101F8000012300221903E148CDE9004500F067FB79
:101F9000012300220421DF48CDE9004500F05FFB6A
:101FA0007CBD1CB50822032140B101280DD00328B7
:101FB00003D10821D248FFF7B9FF1CBDCDE90012BB
:101FC000012300220321D44806E0CDE900120123B9
:101FD00000224FF44061CD4800F041FB1CBD1CB510
:101FE00007220323990250B101280ED0022812D0F3
:101FF000032803D10721C148FFF798FF1CBDCDE995
:10200000003201230022C5480CE0CDE90032012353
:102010000022BE4806E0CDE90032012300224FF441
:102020004071BC4800F01BFB1CBD1CB507220321FE
:1020300040B101280DD0032803D10721AE48FFF796
:1020400075FF1CBDCDE90012012300220C21B2480E
:1020500005E0CDE90012012300226021AD4800F027
:10206000FEFA1CBD1CB50722032140B101280ED089
:10207000032803D107219F48FFF758FF1CBDCDE976
:102080000012012300224FF4C061A34805E0CDE90E
:10209000001201230022C021A04800F0E0FA1CBD7C
:1020A000944A0146904200D19D48934A914201D101
:1020B0009B481030914A914201D199482030904A72
:1020C000914201D1964830308E4A914201D19448D4
:1020D00040308D4A914201D19148503070472DE9EE
:1020E000FF4F87B09A46DDE914B913460446DDF880
:1020F0005C80FFF7D5FF05467E488A4F01938442F6
:1021000009D1386840F0100038600898FFF7AAFF3E
:1021100025208DF80000834E7748361F844209D170
:10212000306840F4003030600898FFF77EFF2620CA
:102130008DF800007148844209D1306840F4802055
:1021400030600898FFF74BFF27208DF800006C489F
:10215000844209D1306840F4002030600898FFF7CD
:1021600020FF34208DF800006648844209D1306891
:1021700040F4801030600898FFF7F7FE35208DF8A6
:1021800000006148844209D1386840F0200038607E
:102190000898FFF7CCFE47208DF800002046FEF798
:1021A000B3FD01268DF8036006208DF8010020465E
:1021B000FFF7A2FE8DF802006846FEF7A8FB16980E
:1021C000ADF80A00ADF80EB0ADF810A0ADF80C9067
:1021D000ADF808800020287340F6FF700590411E7E
:1021E000059101D30846FAE701A92046FEF7D1FD83
:1021F000A08940F02000A0812E73A08940F40050F7
:10220000A0810BB0BDE8F08F2DE9FF4104463948AD
:1022100000250C2617468846844206D1CDE9006584
:10222000029500230395FFF75AFF3348844208D1F3
:10223000CDE90065029500233A4641460395FFF734
:102240004EFF2E48844208D1CDE900650295002357
:102250003A4641460395FFF742FF2948844208D198
:10226000CDE90065029500233A4641460395FFF704
:1022700036FF2448844208D1CDE900650295002349
:102280003A4641460395FFF72AFF1F48844208D18A
:10229000CDE90065029500233A4641460395FFF7D4
:1022A0001EFFBDE8FF812DE9FF47044611480025C8
:1022B0000C261F4690468946844205D1CDE900652B
:1022C00002950395FFF70BFF0B48844208D1CDE937
:1022D000006502953B46424649460395FFF7FFFEDF
:1022E0000648844223D1CDE9006502953B4642462B
:1022F000494619E0001001400044004000480040F9
:10230000004C004000500040001401400008024012
:1023100000180240000C024000000240000402408D
:1023200020000020443802400395FFF7D8FE94486F
:10233000844208D1CDE9006502953B4642464946B4
:102340000395FFF7CCFE8F48844208D1CDE90065A4
:1023500002953B46424649460395FFF7C0FE8A4830
:10236000844208D1CDE9006502953B464246494684
:102370000395FFF7B4FEBDE8FF8710B50023FFF714
:102380008FFEC18819B902894489A2420DD04289C1
:1023900083889A4201D100224281036892B29B56FF
:1023A000521C428109B1491EC180D8B210BD10B57E
:1023B0000C46FFF775FEC38842890DE08188914283
:1023C00000D100220168895CA14201D1012010BD29
:1023D000521C5B1E92B29BB2002BEFD1002010BDAD
:1023E000F0B516460F4684460024FFF759FE054611
:1023F000C08840B1697B6046FFF7D9FF78B9E888AB
:10240000A98888420BD00020F0BD6046FFF7B5FFD9
:102410003855697B884205D0641CA4B200E0761E62
:10242000B442F2DB0021641CA0B23954F0BD00B507
:10243000FFF736FEC18829B901894089814201D15F
:10244000012000BD002000BD00B5FFF729FEC188B6
:102450008088814201D1012000BD002000BD00B56F
:10246000FFF71EFE0021C1800181418100BD00B542
:102470000B46FFF715FE437300BD10B50C4603462F
:10248000FFF70EFE007B00280BD007E01988090635
:10249000FCD59880641C18880006FCD5207800289C
:1024A000F4D110BD70B515460E460446FFF7F8FD91
:1024B000007B00280DD0002309E020880006FCD511
:1024C000F05CA08020880006FCD55B1C9BB2AB4270
:1024D000F3D370BDC388828893420DD2038993429F
:1024E00001D10022028103890268D1540189491C6B
:1024F0000181C188491CC180704724480188890630
:1025000003D58088C1B22248E4E77047214800889B
:10251000800606D51F48001D0088C1B21C48103037
:10252000D8E770471C480088800606D51A48001D69
:102530000088C1B216482030CCE7704710480088A8
:10254000800606D50E48001D0088C1B21048303004
:10255000C0E770470B480188890604D58088C1B25E
:102560000B484030B6E7704707480088800606D51C
:102570000548001D0088C1B205485030AAE77047E1
:10258000004C004000500040001401400010014089
:10259000200000200044004000480040A3490844B7
:1025A000C0F38F2070472DE9F04F9A46DDE909B856
:1025B00089460346FFF7F2FFC5B200204FF0030E35
:1025C0000121814011EA090F28D0994E36F81540B3
:1025D0000C4326F81540DF6844000EFA04F6B743B2
:1025E0000BFA04FC47EA0C07DF601F6802FA04FCE0
:1025F000B74347EA0C071F60012A01D0022A0DD118
:102600005F6889B28F430AFA00F189B20F435F60B5
:10261000996808FA04F4B14321439960401CC0B2A0
:102620001028CDD3BDE8F08F00B5FFF7B7FF01212B
:102630008140804802681143016000BDFCB5164628
:10264000DDE907C50C00074608D0FFF7EDFFCDE92F
:1026500000C5324621463846FFF7A5FFFCBD2DE9EF
:10266000FC4F9946DDE90BB792460D00064622D095
:10267000FFF7DAFF002201214FF00F0C01FA02F000
:1026800028420DD0D00806EB8003186A5407E40EE8
:102690000CFA04F820EA080007FA04F42043186250
:1026A000521C102AEAD3CDE9009B53460222294648
:1026B0003046FFF778FFBDE8FC8FF0B50E460546C3
:1026C000FFF76CFF00225A49C4B24FF0010C0327F8
:1026D0000CFA02F333420CD028684FEA420E07FA94
:1026E0000EFE40EA0E00286031F81400984321F8ED
:1026F0001400521CD2B2102AEAD3F0BDF0B5002269
:102700000125032605FA02F30B4205D004685700A1
:1027100006FA07F39C430460521CD2B2102AF1D38C
:10272000F0BDF0B500220127032607FA02F33C466C
:102730000B4208D00568530006FA03FC25EA0C0595
:102740009C4025430560521CD2B2102AEDD3F0BD47
:10275000F0B500220125032605FA02F30B4205D04D
:102760000468570006FA07F31C430460521CD2B2F7
:10277000102AF1D3F0BDF0B5002201260324022770
:1027800006FA02F30B4209D00568530004FA03FC71
:1027900025EA0C0507FA03F31D430560521CD2B26B
:1027A000102AEDD3F0BDF0B500230127032507FA69
:1027B00003F40C4209D0C6685C0005FA04FC26EA62
:1027C0000C0602FA04F42643C6605B1CDBB2102B35
:1027D000EDD3F0BD41F48032C261C161C261C16913
:1027E000C0697047002102E0491C89B240080128F5
:1027F000FAD80846704700B5FFF7D0FE01218140A6
:102800000C4802688A43026000BD00B5FFF7C6FEAF
:10281000074931F8100000BD00B5FFF7BFFE0449BD
:1028200031F81000C04380B200BD00000000FEBFC0
:10283000700100203038024088B000F0C4F8FFF783
:1028400029F9274E4FF4E13201213046FFF7DCFC35
:10285000244F00213846FFF7B0FA01210846FDF762
:1028600074FE2020049001208DF8140000208DF8C3
:10287000160002208DF8150004A91B48FDF7A8FFDB
:1028800000F00EF919481AA10268684600F0AEF986
:1028900069463046FFF7F1FD184C4FF0E025002166
:1028A0003846FFF7DBFA024615A1684600F09EF9AC
:1028B00069463046FFF7E1FD21684FF0640006915C
:1028C000EFF3058129B92168069A891A8142FAD362
:1028D000E5E72969C90300D5401E0028F9D1DEE7E4
:1028E0000010014000200140000002408000002054
:1028F0005354415254204025640A0D001400002016
:102900002534640A0D0000007047FEE7FEE7FEE78D
:10291000FEE7704770477047704710B5FFF78EF8B5
:1029200010BD00000CB500225449009201920868C5
:1029300040F4803008604FF4A043086800F4003091
:1029400001900098401C0090019810B9009898429E
:10295000F3D10868800334D5012001904748403006
:10296000026842F0805202604548026842F44042E8
:1029700002604248083002680260026842F4004285
:102980000260026842F4A0520260031F3D4A1A60CE
:102990000A6842F080720A600A689201FCD53A49DE
:1029A00040F205720A60016821F0030101600168CC
:1029B00041F0020101600168C1F381010229FAD1ED
:1029C0000CBD01920CBD314810B5016841F4700195
:1029D00001602A48016841F001010160274A002195
:1029E0000832116002682A4B1A400260031D294A0E
:1029F0001A60026822F48022026020480C300160D4
:102A0000FFF790FF21494FF000608039086010BD4A
:102A100070B51A4D083528681F4B204910F00C007E
:102A200004D05E10042803D0082803D00B601BE0FC
:102A30000E6019E0114A121D1068C0F3805410682E
:102A400000F03F0014B1B6FBF0F001E0B3FBF0F092
:102A500013681268C3F388135843C2F30142521C2F
:102A60005200B0FBF2F0086028680C4AC0F3031073
:102A7000121D105C0A68C2400A6070BD0038024036
:102A80000070004008544007003C024088ED00E020
:102A9000FFFFF6FE103000240024F4008000002028
:102AA00070B501210846FDF76EFD2148002440F273
:102AB000D5610480448041600481847201464FF0F6
:102AC00080452846FEF75AFB01212846FEF7CEFB3B
:102AD000012211462846FEF7DAFE16481C21017035
:102AE000447001218170C170BDE87040FDF70FBFD7
:102AF00010B501218C072046FEF7DDFE002816D018
:102B000001212046FEF7E3FE00210B48FFF7A6F95E
:102B10000A4AB0F5FA6F4FF02001104603D9BDE81C
:102B20001040FDF7BABEBDE81040FDF7B8BE10BDBD
:102B30008801002094000020002001400000024095
:102B400070B5064600F054F9056806F10B0020F058
:102B50000704B4429CBF002070BD2B466A68BAB11E
:102B60001068A04210D304F1080188423CBF5068AD
:102B7000586007D35168101941601168091B016042
:102B800058601460101D70BD13465268002AE7D1CA
:102B90002146284600F034F90028DED170BD70B51A
:102BA0000446051F00F024F90068002C14BF446897
:102BB00070BD002C18BFAC423CBF20466468F8D3FF
:102BC00001680A18AA4218BF456003D12A68054661
:102BD0001144016028684119A1421CBF6C6070BD9E
:102BE0006168696021680844286070BD0FB41CB535
:102BF000074B06AA7B4469460090059800F0A9F9A6
:102C00000020694600F0B8F91CBC5DF814FB000018
:102C10008103000070B5044685690068C10601D5CE
:102C2000302600E02026C00707D070BDD4E901217E
:102C300030469047206A401C20626D1EF6D570BD5C
:102C400070B5044685690078C00707D170BDD4E926
:102C5000012120209047206A401C20626D1EF6D57D
:102C600070BD00002DE9F04106460024106875296A
:102C7000314616A510D0AFF30080002802DA40429A
:102C800013A507E031688A0701D512A502E04907BC
:102C900004D511A5012401E0AFF3008000210A2230
:102CA00006F1240709E0B0FBF2FCB0FBF2F302FBF3
:102CB0001C00303078541846491C0028F3D12346B4
:102CC0002A463046BDE8F04100F0E4B800000000BC
:102CD0002D0000002B000000200000002DE9F0472F
:102CE0004FF0000A89460446C0F820A02046E1685B
:102CF0008847002876D0252806D0D4E901219047BE
:102D0000206A401C2062F1E7E168204600258847E0
:102D1000C4F81CA006460027C4F818A02A2E09D023
:102D2000304600F0D7F938B304EB8708303EC8F8D6
:102D3000186019E059F8041B204604EB87029161E2
:102D4000E1688847012F064618D1E069002820DA9B
:102D500025F020051DE0D8F8180000EB800006EBF8
:102D600040003038C8F818002046E1688847064619
:102D700000F0B0F90028EED1012F0AD02E2E08D194
:102D80002046E16888477F1C0646022F45F0200553
:102D9000C4DBA069002803DA404245F00105A061C8
:102DA000E80701D025F01005B6B1A6F141001928B9
:102DB00002D8203645F400654A4631462046256053
:102DC0004D46FDF71BFA58B1012806D0ED1D25F040
:102DD000070000F1080989E704E005F1040985E727
:102DE00030468AE7206ABDE8F08770477047704731
:102DF000004870479C01002070477047704770473B
:102E000038B504460A4600206946AFF30080002822
:102E100008BF38BD02460099204600F0B7F80120EF
:102E200038BD012000F0CCB8F8B5AFF300800546FE
:102E300000200C46102000BF0646A819A0420DD95C
:102E4000324669460020AFF30080070008BF00F05B
:102E5000B7F80098A04218BF0546C419FFF7C8FF8D
:102E600005600746F01D20F007004619284600F0CF
:102E70000AF8B44208BFF8BDA21B31463868BDE865
:102E8000F84000F083B800210160C0E901107047EC
:102E9000102070472DE9F0470D46994692460446AA
:102EA00000F124080168880604D5E06921F01001CA
:102EB000216000E00120A84201DD471B00E000275F
:102EC000A1697A1902EB0900081AA0612078C006EE
:102ED00002D42046FFF79EFE002608E0D4E9012137
:102EE0001AF806009047206A401C761C20624E4566
:102EF000F4DB2078C0060AD52046FFF78BFE06E0FB
:102F0000D4E9012130209047206A401C2062381EFD
:102F1000A7F10107F4DC07E0D4E9012118F8050066
:102F20009047206A401C2062281EA5F10105F3DCB1
:102F30002046FFF785FE2078000602D50220BDE876
:102F4000F0870120FBE7000001694A1C0261087854
:102F5000704700B58FB0CDE90131002105910549D9
:102F60007944CDE9031011466846FFF7B7FE0FB06C
:102F700000BD0000E5FFFFFF0A6802F8010B0A60D0
:102F800070470000004870479401002003464068E5
:102F90008C46002818BF88423CBF03464068F8D3DF
:102FA00018681844884207D00CF1030020F007008D
:102FB000001D411A521A0146081D0A60FFF7EFBDB5
:102FC00010B500F039F8BDE8104000F02FB8704798
:102FD0007546FFF7D7FFAE4605006946534620F019
:102FE0000700854618B020B5FDF734F9BDE820404C
:102FF0004FF000064FF000074FF000084FF0000BB5
:1030000021F00701AC46ACE8C009ACE8C009ACE867
:10301000C009ACE8C0098D46704710B50446AFF34F
:1030200000802046BDE81040FDF700B9002801D01F
:1030300000F02AB87047000010B5012805D0002123
:1030400003A000F027F8012010BD09A1F8E7000057
:1030500053494752544D454D3A204F7574206F6681
:103060002068656170206D656D6F727900000000E9
:103070003A2048656170206D656D6F727920636FCD
:10308000727275707465640001491820ABBEFEE76A
:103090002600020070B505460C460A2000E06D1CB3
:1030A00000F011F835B128780028F8D102E0641C4E
:1030B00000F009F814B120780028F8D1BDE870407C
:1030C0000A20AFF3008008B569468DF800000320A0
:1030D000ABBE08BD30380A2801D20120704700205D
:1030E00070474FF04070E1EE100A70470C31000855
:1030F0000000002098000000C4010008A43100086E
:103100009800002060070000E001000800000000B7
:10311000010203040102030406070809000000007D
:10312000000000000000000000000000B0000020CF
:103130002000000000000000000A0000D000002075
:103140002000000000000000000A0000F000002045
:103150002000000000000000000A00001001002014
:103160002000000000000000000A000030010020E4
:103170002000000000000000000A000050010020B4
:103180002000000000000000000A0000007A030A8E
:103190000000000000000000010203040607080907
:0431A000000000002B
:040000050800018965
:00000001FF
